:020000020000FC
:100000000CC0C0F9A4B0999282F880908883A7A10F
:10001000868E0FEF0DBF08E00EBF0FEF07B900E0AF
:1000200008B900E004B90FEF05B900000FEF0AB9F5
:1000300000E00BB900E00093C100000000000FEFEA
:100040001FEF30E0E2E0F0E003B11017E9F30E94A7
:10005000490003B11017C1F3102F00FF0E943400B4
:1000600001FF0E943C00F0CF3395303159F038B990
:10007000319644914BB908953A9538B931974491E6
:100080004BB9089530E038B9E2E0F0E044914BB963
:10009000089520E023952030E9F720E023952030D3
:0C00A000E9F720E023952030E9F70895EF
:00000001FF
